:020000040800F2
:1000000068110020D5000008711F00084D1E00086F
:1000100000000000000000000000000000000000E0
:100020000000000000000000000000002D2000087B
:100030000000000000000000B91F00082F20000889
:10004000E7000008E7000008E7000008E7000008F4
:10005000E7000008E7000008E7000008E7000008E4
:10006000E7000008B1030008E7000008E700000807
:10007000E7000008E7000008E70000081521000875
:10008000E7000008E7000008E700000800000000A3
:10009000E7000008E7000008E7000008E7000008A4
:1000A000E7000008E7000008E7000008E700000894
:1000B000E7000008E700000800000000E700000873
:1000C0000348854600F07CF8004800477527000883
:1000D000681100200448804704480047FEE7FEE717
:1000E000FEE7FEE7FEE7FEE7C1200008C1000008CA
:1000F00030B50B46014600202022012409E00D46C0
:10010000D5409D4205D31D469540491B2546954047
:1001100040191546521E002DF1DC30BDF0B51FB45C
:100120000646002082B005464024019100901BE065
:10013000019922460F46304600F030F8049A059B9C
:10014000801A994110D310461946224600F016F83D
:10015000361A8F410197224601200021009F00F0AE
:100160000DF838184D4100902046641E0028DFDC51
:10017000019B00982946324607B0F0BD10B5202AF1
:1001800004DB0146203A9140002010BD914020231D
:100190009C1A0346E3401943904010BD10B5202A35
:1001A00004DB0846203AD040002110BD0B46D34066
:1001B000D0402024A21A91400843194610BD0000E7
:1001C000064C0125064E05E0E36807CC2B430C3CAA
:1001D00098471034B442F7D3FFF776FFFC270008A6
:1001E0001C28000870B5044600688168490720D5BE
:1001F000816810264907002905DA8168890702D439
:1002000081683143816000F0EFFD05460DE000F0AC
:10021000EBFD401B0A2808D9A06D3043A065E06DB6
:1002200001210843E065084670BD206880684007EA
:10023000EDD4002070BD10B50146806A826D502358
:100240001A420AD1816D012252021143816501686F
:10025000CA681205920F05D020E0006D426B084677
:10026000904710BD026A002A18D10A68120715D5F6
:100270008A6853070122002B09DB4B680C24A34337
:100280004B60816D130299431143816506E0816DD6
:10029000202319438165C16D1143C16500F0EAF85F
:1002A00010BD10B5806A816D402211438165C16D1A
:1002B00004221143C16500F003F910BD10B5806A36
:1002C00000F0DAF810BD000038B5044606480549CC
:1002D0000068FFF70DFF604300E0401E009000281B
:1002E000FBD138BD40420F0008000020F8B504469D
:1002F000006881688907890F012925D10168C9072C
:1003000022D08168052211401025012601290FD134
:10031000816802221143816021680320086000F097
:1003200063FD07460CE000F05FFDC01B0A2807D9FB
:10033000A06D2843A065E06D3043E0650120F8BD65
:1003400020688068C007EED10020F8BDF8B50446EB
:10035000006881688907890F012902D10168C907EE
:1003600022D18168114A10261140012500290ED1A1
:100370008168294381600120FFF7A6FF00F034FD6A
:1003800007460CE000F030FDC01B0A2807D9A06D1D
:100390003043A065E06D2843E0650120F8BD20688A
:1003A0000068C043C007EDD10020F8BD17000080F1
:1003B00010B5024800F060FA10BD0000240D0020C6
:1003C00010B5046863608368102B036803D09960DC
:1003D0000068C26010BD9A600068C16010BD000076
:1003E000F8B506460D464036317D01290DD0012174
:1003F000317501688A68520709D5816D2022114341
:100400008165002030750120F8BD0220F8BD174B32
:100410006A68D80547109A42154C8A6A2B6812D030
:100420005B035B0B1A438A622968490305D5A168FF
:100430000143A1600A20FFF747FF2868800312D517
:10044000A06838430EE05B035B0B9A438A6229681D
:10045000490302D5A1688143A1602868800302D5C1
:10046000A068B843A06000203075F8BD01100000FE
:10047000002701407047000070B50D4C0B49236800
:100480000C4E0D889A00B5500B4E0D89B5500B4D92
:100490004989A950D91FF93901D0206803E000F03B
:1004A0008DF900202060401C206070BD180D0020D8
:1004B0000000002018010020180500201809002065
:1004C0007047000070B5040006D0A06D26460025D8
:1004D0004036002802D006E0012070BDE565357584
:1004E000204600F0D1F8A06DC00603D421688868CA
:1004F000400705D5A06D10210843A0653575EBE7D1
:10050000A06DFF220132904302221043A06588684B
:100510008207920F5A48012A02D10A68D2072BD1CA
:10052000032362689B079A4205D05B429A4202D03D
:100530005B009A4209D10A69920092080A61216817
:100540000A6963681A430A610CE00A69920092081A
:100550000A6181680F229204914381608168626818
:10056000114381602168CA6818239A43CA602168D0
:10057000CA68A3681A43CA6081680122520691437F
:1005800081608168228F52061143816020688168F2
:10059000C90004D4816801221207114381602068D8
:1005A000C168384A1140C1602169E068022923D03E
:1005B00000210843216A226B49035200114308437A
:1005C000616B0843A16989030843E169C9030843D2
:1005D0002168CA681043C860A06A0146FF39C23961
:1005E00005D0E16A08432168CA681043C860606AA0
:1005F0000121012802D00BE00421DAE7206A00285B
:1006000023D0A06D20221043A065E06D0843E06573
:10061000206C012820681FD00169C90703D0016937
:1006200049084900016120684169C908C900416160
:1006300020684169E26B11434161E565A06D800866
:100640008000401CA065002070BD2068C2680123A6
:100650001B041A43C260DBE70269FF239B009A4335
:10066000026120680269636CE66C1A43A36C334331
:100670001A430261206802690A430261D3E700005D
:10068000002701401902FEFF30B5054600681849F1
:1006900085B088422AD11748416B42151143416306
:1006A000312000900320019002200290052069462D
:1006B000000700F0D7FA114C0F482060002060605E
:1006C000A06080212161E060490061618900A16131
:1006D0002021E1612062204600F00EFA002803D0BC
:1006E0006C2107A001F063FF2C65A56205B030BD49
:1006F000002401400010024008000240240D0020A8
:100700002E2E2F5372632F73746D33326C307878C2
:100710005F68616C5F6D73702E630000F7B504460F
:1007200000680025806840073DD426464036307D6D
:1007300001280AD001273775E069012807D0204633
:10074000FFF704FE050002D02EE00220FEBDA06DE2
:1007500016490840FF2101310843A0650020E065EB
:100760003075216D1248C862216D12480863216DF1
:100770001148486321681C200860206841681022E5
:10078000114341602068C1683943C1602168206D10
:100790004031029B019A00F033FA206881680422FC
:1007A0001143816000E002252846FEBDFEF1FFFFF7
:1007B00037020008BD020008A3020008F8B506468B
:1007C00004464036307D012807D001273775204682
:1007D000FFF708FD050002D024E00220F8BD2068E4
:1007E000C16849084900C160206D00F01FF805008C
:1007F00003D0A06D40210843A06520684168102205
:1008000091434160002D204602D0FFF76FFD09E0C3
:10081000FFF76CFD050005D1A06DFF210131884374
:100820003843A065002030752846F8BDF8B5044669
:100830000068016849084900016000F0D5FA002706
:100840002546064620350EE000F0CEFA811B7D20BD
:10085000C000814207D9E06B20210843E0632F717B
:1008600003206871F8BD20680068C007ECD12F71C3
:10087000012068710020F8BDF8B504469D48016864
:100880009C4A9C4E9B4F0832206813041C3630371C
:10089000904201D108221EE0B04201D180221AE02C
:1008A000B84202D10122D20215E0924A443290426B
:1008B00002D10122D2030EE08E4A5832904201D179
:1008C0001A4608E08B4A6C32904202D10122D205CE
:1008D00001E00122D20625461140203500293BD0F7
:1008E0000168090738D501680822914301608149F0
:1008F00020680831884201D108201EE0B04201D1B1
:1009000080201AE0B84202D10120C00215E07949E6
:100910004431884202D10120C0030EE075495831AC
:10092000884201D1184608E072496C31884202D1F0
:100930000120C00501E00120C0066E494860E06B5F
:1009400001210843E0630420687100202871616B75
:10095000002901D02046884766480168654A20681A
:1009600008321315904201D104221EE0B04201D199
:1009700040221AE0B84201D11A4616E05D4A4432DC
:10098000904202D1012292030FE05A4A583290421B
:1009900002D10122920408E0564A6C32904202D100
:1009A0000122920501E001229206114238D001682D
:1009B000490735D50168890603D4026804218A43B2
:1009C00002604C4920680831884201D104201EE0B1
:1009D000B04201D140201AE0B84201D1184616E0D9
:1009E00044494431884202D1012080030FE041494B
:1009F0005831884202D10120800408E03D496C3121
:100A0000884202D10120800501E001208006394999
:100A1000486005206871216B002901D02046884775
:100A200034480168334A206808325315904201D196
:100A300002221EE0B04201D120221AE0B84201D1C8
:100A40001A4616E02B4A4432904202D10122520348
:100A50000FE0284A5832904202D10122520408E0A5
:100A6000244A6C32904202D10122520501E0012257
:100A7000520611423CD00168890739D501688906C0
:100A800003D401680222914301601A4920680831A9
:100A9000884201D102201EE0B04201D120201AE09C
:100AA000B84201D1184616E012494431884202D1B9
:100AB000012040030FE00F495831884202D1012044
:100AC000400408E00B496C31884202D10120400506
:100AD00001E00120400607494860E06BE063012027
:100AE000687100202871E16A002901D020468847FA
:100AF000F8BD00000000024070B5002805D0034694
:100B000020335979002902D003E0012070BD002173
:100B1000197102215971046822683749C5680A4071
:100B20008168466929430569354329438569294315
:100B3000C5692943056A2943114321602F492F4C78
:100B400002687831A24206D18A6A120912018A62C9
:100B50008A6A406849E0294C1434A24207D18A6A63
:100B6000F024A2438A628A6A406800013DE0234C77
:100B70002834A24208D18A6A0F242402A2438A623E
:100B80008A6A4068000230E01C4C3C34A24208D122
:100B90008A6A0F242403A2438A628A6A4068000397
:100BA00023E0164C5034A24208D18A6A0F24240450
:100BB000A2438A628A6A8088000416E00F4C64347B
:100BC000A24208D18A6A0F242405A2438A628A6A53
:100BD0008088000509E08A4209D18A6A0F24240628
:100BE000A2438A628A6A0079000602438A6201206F
:100BF0005871002070BD00000FC0FFFF08000240C8
:100C0000F8B5044620300579012D1ED00125057167
:100C10000226467120680768AF4307602046FFF749
:100C2000CFFB20680168314301602068016804221D
:100C300011430160206801680822114301602068A7
:100C40000168294301600020F8BD0220F8BD31B5DC
:100C500000F0CAF8044600F0C7F80099001B88426B
:100C6000F9D338BDF8B500230124A7E027469F40FB
:100C70003A4070D04D68022D01D0122D14D1DD08FC
:100C8000AD002D1800952D6A5E07AC46F50E0F26B7
:100C9000AE46AE406546B543AC460E697546AE40BD
:100CA00065462E43009D2E624D68012D05D0022D14
:100CB00003D0112D01D0122D16D185680326AC4624
:100CC0005D00AE46AE406546B543AC46CE6875465F
:100CD000AE4065462E43866046680D79BE43ED06FC
:100CE000ED0F9D403543456006685F000325BD401C
:100CF000AE46AE430D79B446AE07B60FBE4065466C
:100D00002E430660C6687546AE438D68BD403543C8
:100D1000C5604D68ED0050D52B4D6E6B26436E635C
:100D20009E082A4DB6007519AC46AD689E07360F71
:100D30000F27B740BD4305273F07B84201D1002721
:100D40001AE0234FB84201D1012715E0214FB842E4
:100D500002D1022710E030E01F4FB84201D1032733
:100D60000AE01E4FB84201D1042705E01C4FB842EB
:100D700001D1052700E00627B7402F436546AF6045
:100D8000184D2E684F689643FF0300D516432E601A
:100D90006E684F689643BF0300D516436E60AE6819
:100DA0004F689643FF0200D51643AE60EE684F6869
:100DB0009643BF0200D51643EE605B1C0A681546D9
:100DC000DD4000D052E7F8BD0010024000000140B5
:100DD0000004005000080050000C005000100050AB
:100DE000001C0050000401400148006870470000EA
:100DF0000400002002480168491C0160704700009F
:100E00000400002010B5064801684022114301602B
:100E1000002000F007F800F019F8002010BD0000D5
:100E20000020024010B5044607487D21C900006833
:100E3000FFF75EF900F028FD00222146501E00F069
:100E40002BF8002010BD00000800002010B50C4851
:100E5000416B012211434163816B020411438163A1
:100E600000221146501F00F017F800221146901E74
:100E700000F012F800221146501E00F00DF810BDCF
:100E800000100240C106C90E0120884001490860D7
:100E90007047000000E100E010B501F06BF810BDF4
:100EA000F8B56649074601250020ED03624B634A09
:100EB0004031102F6FD011DC012F77D0022F6CD072
:100EC000042F6BD0082F24D1C968032424032140A8
:100ED0007BD0BD026C10A9427CD0A0E00326584C08
:100EE0003604202F0BD0402F35D0FF3F012F10D1DB
:100EF000C968314069D07C04A1426BD096E00B698F
:100F00000969012731403F04B94203D1990559E0ED
:100F10002846F8BD01256D04A94203D19907F8D5EB
:100F20004848F8BDB142FCD111688903F9D5116870
:100F300003200005014001200005091A09D0091A03
:100F400005D0814201D14048F8BD2046F8BD3F4858
:100F5000F8BD3F48F8BDC9680125AD06294006D057
:100F6000A942F7D191688907F4D53A48F8BD1168CC
:100F70008901FBD5D068D1688002374D000F2D5C08
:100F80000802810FD068491CC0030AD41068C0064B
:100F900005D5204606E045E008E023E030E01846AD
:100FA00000E02E486843FFF7A3F8F8BDCC68A4071B
:100FB000A40F0CD0022C0DD0012C10D0032CF4D196
:100FC000096989050029A3DBF8BD16E002E000F0FD
:100FD000D7F9F9E711684907F6D51846F4E700F0A4
:100FE000DFF9F1E7CC680C26344006D0082CF1D0AC
:100FF000042CF4D00C2CE3D0E6E700F0B1F9E3E7E1
:10100000CC680326B6023440F7D00127FF02BC4269
:10101000E0D07A109442E2D0B442D1D0D4E7A142D9
:10102000DDD0D1E7916B4902E7D4CDE7012212046C
:101030009142D4D0C8E700000024F4000010024020
:1010400000093D008890000020A1070040420F00E9
:1010500080841E00006CDC02E827000800127A0081
:10106000F8B5044600785E4D800672D55C4E0027C8
:10107000403EB06BC00004D4B06BA9050843B06318
:10108000012758480168C90511D401688215114328
:101090000160FFF7A9FE009005E0FFF7A5FE0099AB
:1010A000401A642837D84F480068C005F5D5326823
:1010B0000321090560680A400140914208D081037C
:1010C000890F032904D13168890301D50120F8BDB6
:1010D0002A69032109040A4022D0084090421FD007
:1010E000207880061CD528692A6988430121C90413
:1010F0000A432A612A698A432A612861C0050FD5FB
:10110000FFF772FE009008E0FFF76EFE0099411AAB
:101110003548814201D90320F8BD28698005F3D5FF
:1011200061688803800F032805D132680005824377
:1011300001400A43326028690322616812041140A9
:1011400008432861002F04D0B06B012109078843B0
:10115000B0632078C00705D0E868A16880088000E7
:101160000843E8602078800705D5E8680C218843AB
:10117000E1680843E8602078400706D5E868032165
:101180008902884321690843E8602078000706D572
:10119000E86803210903884361690843E8602088FF
:1011A000C00506D5E868032109048843A1690843FE
:1011B000E8602078400606D5E86801218906884362
:1011C000216A0843E8602078000606D5E868032114
:1011D00089048843E1690843E8600020F8BD000005
:1011E000401002400070004088130000F8B505462A
:1011F00053480E460068C007C00FB0420AD250489C
:10120000016849084900314301600068C007C00F08
:10121000B0426FD128784B4C800705D5E068F021AB
:101220008843A9680843E0602878C00752D06868FE
:10123000022817D0032818D02168012818D0890562
:10124000002957DAE168890889000143E160FFF766
:10125000CBFD69680746022912D003291CD0012959
:1012600026D033E021688903EAE721688901E7E7AE
:101270004907E5E7FFF7B8FDC11B3348814223D892
:10128000E0680007800F0228F4D123E0FFF7ACFDEF
:10129000C11B2D48814217D8E0680007800F032842
:1012A000F4D117E0FFF7A0FDC11B274881420BD8FE
:1012B000E0680007800F0128F4D10BE0FFF794FDF0
:1012C000C11B2148814201D90320F8BDE068000715
:1012D000800FF3D11A480168C907C90FB1420BD971
:1012E000016849084900314301600068C007C00F28
:1012F000B04201D00120F8BD2878400706D5E0684B
:10130000072109028843E9680843E060287800075C
:1013100007D5E0680721C90288432969C900084345
:10132000E06000F03DF8E168084A0906090F515CE9
:10133000C840074908600020FFF774FD0020F8BD91
:10134000002002400010024088130000D827000847
:1013500008000020014800687047000008000020D5
:10136000044805490068C968044A4905490F515CA9
:10137000C84070470800002000100240F127000814
:10138000044805490068C968044A8904490F515C4A
:10139000C84070470800002000100240F1270008F4
:1013A00010B5184AD1680C20084004280BD0082832
:1013B00010D00C2810D050680004410F0120C00349
:1013C000491C884010BD1068C00601D50E4810BDEC
:1013D0000E4810BD0E4810BD88020E4B000F185C61
:1013E0000902D368890F491CDB0301D5084A05E0CF
:1013F0001268D20601D5044A00E0044A5043FEF7C1
:1014000077FE10BD0010024000093D000024F400EA
:1014100000127A00E8270008F8B504460078FE4D6F
:10142000C0074AD0E8680007800F022807D0E868A4
:101430000007800F032809D1E868C00306D5286893
:1014400080033AD56068002873D036E001206268D6
:101450000004824203D129680143296011E0052379
:1014600001211B0489049A422A6802D10A432A6096
:10147000F1E782432A602A68024000922868884384
:101480002860606800280CD0FFF7AEFC064604E038
:10149000FFF7AAFC801B64287ED828688003F7D554
:1014A0000BE0FFF7A1FC064604E0FFF79DFC801B64
:1014B0006428F1D828688003F7D42078800741D5C4
:1014C000E8681F270007800F3F02012807D0E8685F
:1014D0000007800F032809D1E868C00306D42868F4
:1014E000400717D5E068012823D113E0E068002801
:1014F00017D029680922914301432960FFF774FC42
:10150000064604E0FFF770FC801B0228C4D8286858
:101510004007F7D568682169B84309020843686045
:1015200010E02868400840002860FFF75DFC064690
:1015300005E095E0FFF758FC801B0228ACD828682E
:101540004007F7D42078C00672D5E868B34E00078C
:10155000800F0AD0E06900282868B1495AD00843B2
:101560002860FFF741FC074644E02868800502D563
:10157000E069002874D0606A69683140884212D9F5
:1015800000F01CFD0028AFD16868616AB0430843D1
:1015900068606868000200E0DCE0218C000A09064F
:1015A000084368600FE06968B14301436960686897
:1015B000218C0002000A090608436860606A00F096
:1015C000FDFC002890D1606A410B0120C003491C3A
:1015D0008840E96809060A0F9249895CC840924927
:1015E00008600020FFF71EFC22E0FFF7FDFBC01B98
:1015F00002288BD828688005F7D56868616AB043EF
:10160000084368606868218C0002000A09060843E4
:1016100068600DE088432860FFF7E6FB064604E0BB
:10162000FFF7E2FB801B022888D828688005F7D4E2
:1016300020787E4E000723D560690028306910D0DD
:10164000012108433061FFF7CFFB074604E0FFF7B5
:10165000CBFBC01B02287DD830698007F7D50FE08F
:1016600001E1400840003061FFF7BEFB074604E09F
:10167000FFF7BAFBC01B02286CD830698007F7D48B
:101680002078400760D5A86B0027C00005D4A86B60
:10169000012109070843A863012765480168C905B6
:1016A00011D40168821511430160FFF79DFB009082
:1016B00005E0FFF799FB0099401A64284AD85C4876
:1016C0000068C005F5D55648A268824203D1316949
:1016D0000143316111E001218902002A07D005236D
:1016E0001B029A4203D132690A433261EFE7326941
:1016F00082433261306988433061A06800280ED08F
:10170000FFF772FB009006E0FFF76EFB0099411AAD
:10171000484881421ED830698005F5D50DE0FFF7B5
:1017200063FB009006E0FFF75FFB0099411A414818
:1017300081420FD830698005F5D4002F04D0A96B01
:10174000012000078143A9632078800630D53A48FC
:10175000421400E080E0A169002916D0AB680121A5
:101760000B43AB606B6B0B436B63016A114301620C
:10177000FFF73AFB064604E0FFF736FB801B022822
:101780006AD8A8688007F7D512E0A9684908490017
:10179000A960016A91430162FFF726FB064604E057
:1017A000FFF722FB801B022856D8A8688007F7D4D1
:1017B000A06A002855D0E9680907890F032952D08B
:1017C000012636060228286805D0B0432860FFF7B6
:1017D0000BFB044642E0B0432860FFF705FB0746D9
:1017E00004E0FFF701FBC01B022835D82868800100
:1017F000F7D4216BE06AEA680843616BFD231B04A0
:101800009A4311430843E860286830432860FFF793
:10181000EBFA044617E000000010024000E0000070
:1018200000010000D82700080800002040100240F6
:10183000007000408813000000000140FFF7D4FA58
:10184000001B022808D828688001F7D509E0FFF7B7
:10185000CBFA001B022801D90320F8BD28688001BB
:10186000F5D40020F8BD0120F8BD00000422044991
:101870000428086902D09043086170471043FBE7D1
:1018800000E000E070470000094910B5401E8842A2
:1018900001D9012010BD074C60610321081F00F031
:1018A00069FB0020A06107202061002010BD00001E
:1018B000FFFFFF0000E000E010B5FFF7E3FF10BD01
:1018C00070B502462032137D012B1BD00123137506
:1018D00002245475046865687026B5436560046821
:1018E00065680E68354365600468A5688026B54361
:1018F000A5600068846849680C43846053750020C3
:10190000107570BD022070BD70B5040005D025466D
:101910002035687D002802D006E0012070BD00203F
:101920002875204600F00AF802206875211D2068FD
:1019300000F0F8FB01206875002070BD00680121EF
:101940008907884204D10348816B012211438163D6
:1019500070470000001002400268D36801210B4369
:10196000D360006802680A43026000207047F8B53F
:10197000054604462035287D012817D001272F75FC
:1019800002206875226890687726FF23B0431B0207
:10199000984390600868502837D00EDC202857D034
:1019A00006DC00284ED0102840D14EE00220F8BDC1
:1019B000302850D0402839D13CE060282DD0702804
:1019C00017D001221203801A0ED090422ED1CB687C
:1019D0004A688968206800F0D5FB20688168012288
:1019E00092031143816021E020688168C908C90021
:1019F000F8E7CB684A688968206800F0C3FB216873
:101A00008868B0433043886010E0CA68496820683D
:101A100000F0CBFB5021206806E0CA6849682068C6
:101A200000F0D4FB6021206800F0B7FB6F75002048
:101A30002875F8BDCA684968206800F0B6FB4021E7
:101A40002068F1E700212068EEE710212068EBE72D
:101A500020212068E8E730212068E5E7704770B56D
:101A60000446006801690025C9438907002915DB80
:101A7000C168C943890711D4E91E0161012020759D
:101A8000206880698007204602D0FFF7E7FF04E066
:101A900000F078F8204600F076F825752068016996
:101AA000C943490717D4C168C943490713D404215E
:101AB000C943016102202075206880698005800F7C
:101AC000204602D0FFF7CAFF04E000F05BF8204692
:101AD00000F059F8257520680169C943090716D433
:101AE000C168C943090712D40821C9430161042010
:101AF00020752068C0698007204602D0FFF7AEFF3E
:101B000004E000F03FF8204600F03DF8257520681D
:101B10000169C943C90617D4C168C943C90613D4AA
:101B20001021C9430161082020752068C069800523
:101B3000800F204602D0FFF791FF04E000F022F86A
:101B4000204600F020F8257520680169C943C907BF
:101B500008D1C168C943C90704D1891E0161204663
:101B600000F012F820680169C943490609D4C16828
:101B7000C943490605D44021C9430161204600F00C
:101B8000A7F870BD70477047FEB5294988424ED10D
:101B90002748062227496038FEF7C0FDFF202D3078
:101BA000FFF755F80024224E2546A836AF00F2591B
:101BB000294621A000F0FCFCF0596D1C0419FF2DF2
:101BC000F4DDE017000E001900120024204E254617
:101BD0000190AF00F25929461EA000F0E9FCF0592F
:101BE0006D1C0419FF2DF4DDE017000E0019001222
:101BF00000241E4E25460090AF00F25929461CA035
:101C000000F0D6FCF0596D1C0419FF2DF4DDE0172F
:101C1000000E001904121CA0019900F0C9FC20A0BC
:101C2000009900F0C5FC214623A000F0C1FCFEBDD8
:101C300070000020180D0020414443305B25645D96
:101C40002056616C75652069732025640D0A0000BB
:101C500018050020414443345B25645D2056616CC7
:101C600075652069732025640D0A0000180900209D
:101C7000414443355B25645D2056616C7565206980
:101C8000732025640D0A0000617665726167652026
:101C90004144435B305D203D202025640D0A000057
:101CA00061766572616765204144435B345D203D28
:101CB000202025640D0A0000617665726167652049
:101CC0004144435B355D203D202025640D0A000022
:101CD000704770B5040005D025466035687A002845
:101CE00002D006E0012070BD00202872204600F0DE
:101CF00027F82420687220680168490849000160BB
:101D0000606A002802D0204600F073FA204600F0F6
:101D100005FB0128E7D0206841680922D2029143DF
:101D20004160206881682A229143816020680168AF
:101D3000012211430160204600F0C0FA70BD00008E
:101D400000B500680D4985B0884214D10C48816BFC
:101D500001225204114381630C2000900220019063
:101D6000002002900320039004200490052069467F
:101D70000007FEF777FF05B000BD000000440040FB
:101D800000100240FFB5064604466036707A83B004
:101D90000D46202858D1002D0CD00598002809D0D8
:101DA0000120A1680003814207D12069002804D1E5
:101DB000E80702D0012007B0F0BD307A012843D0F7
:101DC000012030720020E06621207072FFF70CF8CD
:101DD000019027464037059838820598788218E0A8
:101DE000788A401E78820698009000228021204642
:101DF000019B00F0ABFB002818D10120A168000373
:101E0000814202D12069002812D021682878886296
:101E10006D1C788A0028E3D10698009000224021AA
:101E20002046019B00F092FB002808D00320C2E767
:101E300028882168C005C00D8862AD1CE9E7202014
:101E4000707200203072B6E70220B4E7FEE70000AF
:101E50001CB520481E49016000210322920701643D
:101E60004260816001240461C16041620422046215
:101E7000C263C162FF22C232046382624163816134
:101E8000082281634261C161FEF71CFB002800D07B
:101E9000FEE7012000030190694600940D48FEF71B
:101EA0009FFA002800D0FEE70B48009069460948D9
:101EB000FEF796FA002800D0FEE708480090694631
:101EC0000448FEF78DFA002800D0FEE71CBD000094
:101ED0000024014010000020100000102000001419
:101EE00010B50121124886B089070160002411490C
:101EF000846041607D21C9010461C160FFF704FD78
:101F0000002800D0FEE70120000300906946084841
:101F1000FFF72DFD002800D0FEE7049404A9044833
:101F20000594FFF7CDFC002800D0FEE706B010BDF9
:101F3000700000200F27000010B50C480A4901600E
:101F4000E1214902416000218160C160016181613C
:101F5000C1610C22016242614162FFF7BAFE0028B2
:101F600000D0FEE710BD000000440040A8000020A3
:101F7000704700008307FF22DB0E9A408907090E95
:101F8000994000280BDA0007000F0838830808483A
:101F90009B001818C36993430B43C36170478308C0
:101FA00004489B001B18186890430843186070474A
:101FB00000ED00E000E400E07047000070B5174954
:101FC0000023CA681206120F18D18A6B154CD5006F
:101FD000134A02D51268224009E08E6B01252D07B5
:101FE0002E438E6312688E6B2240AE438E63A242F4
:101FF00004D103218903884200D101230A480168E2
:1020000049084900194301600068C007C00F9842A1
:1020100001D0012070BD002070BD00000010024002
:10202000007000400018000000200240704710B50A
:10203000FEF7E0FEFFF740FC10BD000070B51F4842
:102040009CB001680322D2029143C2148918016036
:1020500002251020012600240095049003960A947E
:102060006846FFF7D9F9002800D0FEE70F200E9050
:102070001094119400210F9612940EA8FFF7B6F851
:10208000002800D0FEE713A813951694FEF7E8FF8A
:10209000002800D0FEE7FFF75DF97D21C900FEF7BB
:1020A00027F8FFF7F1FB0420FFF7E0FB00221146C1
:1020B000501EFEF7F1FE1CB070BD00000070004025
:1020C00010480168821511430160C1680E4A114031
:1020D000C16001680D4A11400160816849084900EA
:1020E000816001680122920491430160C168FD2270
:1020F00012049143C160002101610549C003886059
:1021000070470000001002400C40FF88F6FFF6FE0A
:1021100000ED00E010B50248FFF7A1FC10BD000083
:1021200070000020F0B502680124A407124D134E80
:10213000134FA04205D0A84203D0B04201D0B8420C
:1021400004D11346702293434A681A43A04205D033
:10215000A84203D0B04201D0B84204D103231B02ED
:102160009A43CB681A4302608A68C2620968816236
:1021700001214161F0BD0000000400400008014061
:102180000014014030B58468FF252D021B02134363
:10219000AC430B432343836030BD826870239A4372
:1021A0000A4307210A438260704730B5036A046A14
:1021B0006408640004628469F025AC431201224380
:1021C0000A24A3430B438261036230BD30B5036A26
:1021D0001024A34303628469036A0F252D031203AD
:1021E000AC432243A024A343090119438261016245
:1021F00030BD10B5818CC90707D001684A6801233A
:102200005B049A43836A1A434A60818C890707D525
:1022100001684A6801231B049A43C36A1A434A604F
:10222000818C490707D501684A6801239B049A43BA
:10223000036B1A434A60818C090707D501684A6815
:102240000123DB039A43436B1A434A60818CC9061E
:1022500007D50268916801231B039943836B1943D7
:102260009160818C890607D501688A6801235B0328
:102270009A43C36B1A438A60818C490612D503685E
:102280005A6801210905046C8A4322435A60026C92
:102290008A4207D10268516803235B059943436C66
:1022A00019435160818C090607D501684A680123EA
:1022B000DB04806C9A4302434A6010BDF8B50026E7
:1022C0000446C666FEF790FD054620680068124F7A
:1022D000000709D501212B46002249052046009719
:1022E00000F034F900280DD12068006840070BD5B4
:1022F00001212B46002289052046009700F026F98F
:10230000002801D00320F8BD202060346072A07244
:1023100026720020F8BD0000FFFFFF01FEB5044655
:10232000016880682269E36910436269102700260A
:102330001A4310430A683546784B1A4002430A6034
:1023400020684168032212039143E268114341600F
:10235000734A2168A069914201D0226A10438A68B9
:102360000B231B029A4302438A606E4A20686E491F
:1023700090420CD1C8688007800F06D0012843D056
:1023800002283FD0032826D124E0012723E0674A12
:1023900090420AD1C8680C21084031D0042833D0BB
:1023A00008282FD00C2816D114E0614A904227D07B
:1023B000604A904224D05A4A90420CD1C968032006
:1023C000800201401CD01015091A1DD0091A19D01D
:1023D000814200D108270220FEF762FD0190504B98
:1023E000514922684039D81300929A4235D1002FC2
:1023F0000CD0022F0DD0042F12D0082F1CD113E0C7
:102400000027E8E70227E6E70427E4E7FEF7A8FF4E
:1024100008E00868C00601D5474805E0474803E0E2
:10242000FEF7BEFF002873D0626851005118814248
:1024300002D81103814201D2012569E0010E060292
:102440005008002330185941FDF768FE03210902A6
:102450003B4A411A914259D9EEE7E26982422DD1B5
:102460003B0000F0B5F80906080B24192424241FAA
:102470002400019812E0FEF783FF0FE0086861680E
:10248000C00602D548082F4A01E02F4A48088018A4
:10249000FDF72EFE86B20BE0FEF782FF616840007A
:1024A0004A08F4E76168012248081204EFE70125B1
:1024B000310909013007400F084327E03B0000F0D5
:1024C00087F809070A0D061D060606290600B3E768
:1024D000FEF746FF14E0FEF753FF11E0086861685D
:1024E000C00602D54A08144801E014484A081018EA
:1024F000FDF7FEFD81B20098C16009E0FEF750FFD4
:1025000061684A088018FDF7F3FD80B22168C86051
:102510002846FEBD61684A08E9E70000F369FFEF5D
:102520000048004000380140401002400044004094
:10253000004C00400050004000093D000024F40021
:10254000FFFC0F0000127A000048E801FFB581B0DF
:1025500017460E4604460A9D1DE0681C1BD0002D40
:1025600005D0FEF741FC0499401AA84213D920680F
:102570000168FF22A1329143016020688168490807
:1025800049008160202060346072A07200202072B7
:10259000032005B0F0BD2068C1693046884304D0EF
:1025A0000020B842D9D00020F3E70120F9E7FEE788
:1025B0000FB410B503A9044B044A029800F024F8A4
:1025C00010BC08BC04B01847592700080C000020B4
:1025D00030B47446641E2578641CAB4200D21D469C
:1025E000635D5B00E31830BC184702E008C8121FA7
:1025F00008C1002AFAD170477047002001E001C1EC
:10260000121F002AFBD17047FFB58DB0044600258C
:1026100006E025280AD0109A0F999047641C6D1C7B
:1026200020780028F5D1284611B0F0BD00270121FF
:10263000484A009700E00743641C23780846203B83
:1026400098401042F7D120782E2817D10420074354
:102650006078641C2A280CD10E98641C02C8009172
:102660000E900BE000990A22514330394018641C47
:1026700000902078014630390929F3D920780028C4
:10268000D1D0642808D0692806D075281ED0109AA9
:102690000F9990476D1C5BE00A200E99019001C9CB
:1026A0000E91002802DA40422D2102E0390504D5BE
:1026B0002B216A461172012103E0F90704D0202181
:1026C000F7E70BAE0B910DE00021FAE70A200E9917
:1026D000019001C90E91F7E70199FDF709FD30312D
:1026E000761E31700028F7D103A8801B203001909E
:1026F000780701D5009801E00120009001998842F7
:1027000001DD401A00E000200027009006E002A84A
:10271000109AC05D0F9990476D1C7F1C0B988742E3
:10272000F5DB04E0109A30200F9990476D1C00995A
:10273000481E00900029F5DC05E03078109A761CE0
:102740000F9990476D1C0199481E01900029F4DCF7
:10275000641C65E70928010013B5044B0122694692
:102760000348FFF70FFB00981CBD0000FFFF0000AF
:10277000A800002008B5FEF745FBFFF75FFC1448F2
:10278000C26A01210A43C262C26A0A400092026B15
:102790000A430263006B00220840009011460920A2
:1027A000FEF77AFB0920FEF76DFBFFF7C5FBFFF78D
:1027B00097FBFFF74DFB002201210F20FEF76CFB7A
:1027C0000F20FEF75FFB0348FFF7C6F8FEE70000A7
:1027D0000010024070000020000000000000000017
:1027E0000102030406070809030406080C10182058
:1027F0003000000000010203040000001C28000853
:102800000000002010000000EA2500082C28000825
:102810001000002058110000FA25000800000000F8
:0C2820000000000080841E00000000008A
:04000005080000C12E
:00000001FF
